:100000000C948A000C94B2000C94B2000C94B200D0
:100010000C94B2000C94B2000C94B2000C94B20098
:100020000C94B2000C94B2000C94B2000C94B20088
:100030000C94B2000C94B2000C94B2000C94B20078
:100040000C945B0B0C94B2000C94AC060C948606DA
:100050000C94B2000C94B2000C94B2000C94B20058
:100060000C94DE060C94B20008000000BE922449F5
:10007000123EABAAAA2ABECDCCCC4C3E00000080DA
:10008000BEABAAAAAA3E00000000BF000000803F4D
:100090000000000000084178D3BB4387D1133D190D
:1000A0000E3CC3BD4282AD2B3E68EC8276BED98F3A
:1000B000E1A93E4C80EFFFBE01C4FF7F3F0000007E
:1000C000000000000000240027002A0000000000BB
:1000D000250028002B000404040404040404020284
:1000E00002020202030303030303010204081020B7
:1000F00040800102040810200102040810200000C2
:1001000000080002010000030407000000000000D6
:100110000000D60C11241FBECFEFD8E0DEBFCDBF4C
:1001200011E0A0E0B1E0ECE0F0E202C005900D9239
:10013000AA33B107D9F722E0AAE3B1E001C01D92CA
:10014000A23AB207E1F710E0CAE8D0E004C0219774
:10015000FE010E94F90FC938D107C9F70E94A50B0B
:100160000C9404100C94000008950895CF92DF922F
:10017000EF92FF920F931F93CF93DF936C017A015D
:100180008B01C0E0D0E0CE15DF0581F0D8016D9184
:100190008D01D601ED91FC910190F081E02DC60119
:1001A0000995892B11F02196EECF7E01C701DF91D1
:1001B000CF911F910F91FF90EF90DF90CF90089516
:1001C000FC01538D448D252F30E0842F90E0821B5D
:1001D000930B541710F0CF96089501970895FC01E2
:1001E000918D828D981761F0828DDF01A80FB11D6E
:1001F0005D968C91928D9F5F9F73928F90E0089592
:100200008FEF9FEF0895FC01918D828D981731F04B
:10021000828DE80FF11D858D90E008958FEF9FEF9F
:100220000895FC01918D228D892F90E0805C9F4F75
:10023000821B91098F739927089584EF91E00E94A2
:10024000110121E0892B09F420E0822F0895FC019F
:10025000848DDF01A80FB11DA35ABF4F2C91848D4F
:1002600090E001968F739927848FA689B7892C9384
:10027000A089B1898C91837080648C93938D848DD7
:10028000981306C00288F389E02D80818F7D8083DA
:100290000895EF92FF920F931F93CF93DF93EC019A
:1002A00081E0888F9B8D8C8D981305C0E889F98932
:1002B000808185FD26C0F62E0B8D10E00F5F1F4F4D
:1002C0000F731127E02E8C8DE8120CC00FB607FCBF
:1002D000FACFE889F989808185FFF5CFCE010E94A8
:1002E0002701F1CF8B8DFE01E80FF11DE35AFF4F7F
:1002F000F0829FB7F8940B8FEA89FB898081806236
:100300000AC09FB7F894EE89FF896083E889F9896C
:1003100080818370806480839FBF81E090E0DF9163
:10032000CF911F910F91FF90EF900895CF93DF939E
:10033000EC01888D8823C9F0EA89FB89808185FDDD
:1003400005C0A889B9898C9186FD0FC00FB607FC3E
:10035000F5CF808185FFF2CFA889B9898C9185FF7F
:10036000EDCFCE010E942701E7CFDF91CF91089515
:1003700080E090E0892B29F00E941D0181110C94EE
:100380000000089585ED8093BC008091BC0084FD41
:10039000FCCF1092CF01089540917C01262F30E0D0
:1003A000240F311D21323105DCF42091CF0124309E
:1003B000C9F4FC0180E090E0861758F430917C018C
:1003C0002191DC01A45ABE4FA30FB11D2C930196BD
:1003D000F3CF80917C01680F60937C0180E00895E9
:1003E00081E0089582E008950895E091A40180914C
:1003F000A301E81730F4F0E0E45CFE4F808190E068
:1004000008958FEF9FEF08959091A4018091A3012B
:10041000981750F4E92FF0E0E45CFE4F208130E0C3
:100420009F5F9093A40102C02FEF3FEFC901089591
:100430008091A30190E02091A401821B910908956D
:10044000CF92DF92EF92FF920F931F93CF93DF93A0
:100450007C01CB018A012091D001222389F0EB019C
:100460006B01C40ED51ECC15DD0569F06991D7016D
:10047000ED91FC910190F081E02DC7010995F3CF3A
:10048000642F0E94CC01C801DF91CF911F910F9181
:10049000FF90EF90DF90CF900895CF93DF931F925E
:1004A000CDB7DEB769832091D0012223D1F020910E
:1004B000F301203240F021E030E0FC01338322835D
:1004C00080E090E015C08091D101E82FF0E0EE527D
:1004D000FE4F998190838F5F8093D1018093F301C8
:1004E00005C061E0CE0101960E94CC0181E090E060
:1004F0000F90DF91CF910895089580E090E00895E6
:100500000E94FF0FCF92DF92EF92FF920F931F9303
:10051000CF938B016A0191E09093D00198E690937C
:10052000F2011092D1011092F301682F81E992E05B
:100530000E944D02019709F065C080E00E943108D9
:10054000282F30E02115310509F05EC08091CF01E0
:100550008111FCCFCC2DC13208F0C0E281E0809344
:10056000CF018093CE019FEF9093CD011092CC01EB
:100570009C0F9093CB018093AA018091AA01806D7A
:100580008093AA018091A901813061F41092A901A0
:100590008091AA018093BB008091BC0083FDF8CFBD
:1005A00085EC01C085EE8093BC008091CF01813045
:1005B000E1F38091CC018C1710F4C091CC01EBEAEF
:1005C000F1E0ACE3B1E080E08C1721F091919D93D4
:1005D0008F5FFACF1092A401C093A301780100E0CD
:1005E00010E08091A401C81789F00C151D0574F462
:1005F0000F5F1F4F81E992E00E940402F70181938F
:100600007F01EFCF86EF06C0C90108C0C016D10632
:1006100019F085EF9FEF02C080E090E0CF911F912D
:100620000F91FF90EF90DF90CF900895CF93DF93DD
:10063000EC014EE050E0BC018BE390E00E948202AE
:1006400028813981388329832A813B813A832B830E
:100650002C813D813C832D832E813F813E832F83DE
:1006600028853985388729872A853B853A872B87CE
:100670002C853D853C872D87DF91CF9108952F9262
:100680003F924F925F926F927F928F929F92AF9222
:10069000BF92CF92DF92EF92FF920F931F93CF936F
:1006A000DF93CDB7DEB7CF56D2400FB6F894DEBF9A
:1006B0000FBECDBFCE01875A9D4F0E9416032FB7A4
:1006C000F8948091A5019091A601A091A701B09105
:1006D000A8012FBFC959DD4F8883C756D240C859DA
:1006E000DD4F9883C856D240C759DD4FA883C956FD
:1006F000D240C659DD4FB883CA56D240CE010196CA
:100700001C018E0107531F4FFE01EF56FE4FC359C8
:10071000DD4FF983E883CD56D240C559DD4F1983AB
:100720000883CB56D2406F0158017C0180E10E94C2
:10073000040BF701819391937F018FE00E94040BDA
:10074000F501819391935F018EE00E94040BF60105
:10075000819391936F010E151F0541F7C12CD12C88
:1007600076014601570126013701F101619171912E
:100770001F01072E000C880B990B0E942B0E9B016A
:10078000AC01C301B2010E94100D2B013C01F80124
:10079000619171918F01072E000C880B990B0E94BB
:1007A0002B0E9B01AC01C501B4010E94100D4B0141
:1007B0005C01C359DD4FE881F981CD56D24061918A
:1007C0007191C359DD4FF983E883CD56D240072E8E
:1007D000000C880B990B0E942B0E9B01AC01C701EA
:1007E000B6010E94100D6B017C01C559DD4F888157
:1007F0009981CB56D2408215930509F0B6CF20E0FF
:1008000030E048EC52E4C301B2010E94810D2B019B
:100810003C0120E030E048EC52E4C501B4010E9404
:10082000810D4B015C0120E030E048EC52E4C7014F
:10083000B6010E94810D6B017C01C301B2010E94CF
:10084000F30D362E272EC501B4010E94F30D062F9D
:10085000C359DD4F7883CD56D240C701B6010E94FF
:10086000F30D162FC159DD4F7883CF56D24020E0CB
:1008700030E84FEF53E4C301B2010E94DB0E1816BB
:10088000ACF420E030EC4FE754E4C301B2010E9425
:10089000810D2AE939E942E952E40E94300F2DEC3A
:1008A0003CEC42E152E40E940F0D14C0A3019201FE
:1008B00060E070E480E094E40E940F0D20E030ECF2
:1008C0004FE754E40E94810D20E030E040E752E41D
:1008D0000E94300F2B013C0120E030EC4FE754E444
:1008E000C501B4010E94810D26E636E646E650E4D5
:1008F0000E94300F20E030EB43EB58E40E94300FB1
:1009000020E030ED44E857E40E94810D4B015C018A
:10091000A701960160E070EC8FE794E40E94810DDE
:1009200020E030E040E85FE30E940F0D0E94E80EF7
:100930006B017C0180910201909103018F3F910531
:10094000F9F480913A0190913B01019690933B011B
:1009500080933A01C297A4F060E070E089E00E94C1
:10096000A50A61E070E080E090E00E94210B6FEF4B
:1009700070E089E00E94A50A10923B0110923A01B2
:1009800080910101882309F469C020E030EE46E738
:1009900055E4C701B6010E94810D25ED32ED4BE50E
:1009A0005BE30E94100D9B01AC0160E070E080E809
:1009B0009FE30E94810D23E333E948E853E40E945A
:1009C0000F0D6B017C0120E030E040E252EC0E9410
:1009D0007C0D87FF03C084EB90E03CC020E030E05A
:1009E00040E751E4C701B6010E947C0D87FF05C0B6
:1009F000109203011092020131C020E030E040E289
:100A000052E4C701B6010E947C0D87FF21C020E09F
:100A100030E040E751E4C701B6010E940F0D20E02D
:100A200030E048EC51E40E94810D20E030E049E1E3
:100A300053E40E94300F20E030E04CEC52E40E947E
:100A4000100D0E94F30D709303016093020106C024
:100A50008FEF90E090930301809302016091040175
:100A60007091050186E00E94A50A609102017091D3
:100A7000030189E00E94A50A6FEF84EF91E00E94D4
:100A8000490144E050E0BE0169597D4F84EF91E097
:100A90000E94B600622D84EF91E00E944901632D0F
:100AA00084EF91E00E944901C359DD4F6881CD5622
:100AB000D24084EF91E00E944901602F84EF91E0E1
:100AC0000E944901C159DD4F6881CF56D24084EF61
:100AD00091E00E944901612F84EF91E00E94490159
:100AE000C65ADD4F6881CA55D24084EF91E00E941A
:100AF0004901C75ADD4F6881C955D24084EF91E062
:100B00000E944901C45ADD4F6881CC55D24084EF20
:100B100091E00E944901C55ADD4F6881CB55D24012
:100B200084EF91E00E944901C25ADD4F6881CE55A1
:100B3000D24084EF91E00E944901C35ADD4F6881A1
:100B4000CD55D24084EF91E00E944901CE59DD4F4E
:100B50006881C256D24084EF91E00E944901CF598A
:100B6000DD4F6881C156D24084EF91E00E94490177
:100B7000CC59DD4F6881C456D24084EF91E00E9489
:100B80004901CD59DD4F6881C356D24084EF91E0D1
:100B90000E944901CA59DD4F6881C656D24084EF90
:100BA00091E00E944901CB59DD4F6881C556D24082
:100BB00084EF91E00E9449016091020184EF91E08D
:100BC0000E9449016091040184EF91E00E94490173
:100BD00020E030E040E551E4C501B4010E947C0D05
:100BE00087FF10C020E030E040E050E4C301B201D4
:100BF0000E947C0D87FF06C068EE73E080E090E005
:100C00000E94210B84EF91E00E94110102970CF4E5
:100C100063C06AE070E080E090E00E94210B84EF06
:100C200091E00E94EF007C0184EF91E00E94EF00D0
:100C30008C016AE070E080E090E00E94210B91E07E
:100C4000E916F10471F40130110521F481E080937B
:100C5000010142C0109303010093020110920101AF
:100C60003BC0E0E1EE16F10429F410930501009376
:100C7000040132C0F1E1EF16F10471F58091000139
:100C8000FF24F3940F3F110599F48F1588F461E068
:100C900084E00E941C0A64E670E080E090E00E941C
:100CA000210B60E084E00E941C0AF092000114C055
:100CB000012B91F4882381F061E084E00E941C0AFA
:100CC00064E670E080E090E00E94210B60E084E048
:100CD0000E941C0A10920001C159DD4F0FB6F89412
:100CE000DEBF0FBECDBFDF91CF911F910F91FF905F
:100CF000EF90DF90CF90BF90AF909F908F907F90BC
:100D00006F905F904F903F902F9008951F920F9299
:100D10000FB60F9211242F933F934F935F936F93CE
:100D20007F938F939F93AF93BF93EF93FF9384EF42
:100D300091E00E942701FF91EF91BF91AF919F91A8
:100D40008F917F916F915F914F913F912F910F9074
:100D50000FBE0F901F9018951F920F920FB60F9213
:100D600011242F938F939F93EF93FF93E0910402AD
:100D7000F09105028081E0910A02F0910B0282FD60
:100D800012C0908180910D028F5F8F7320910E02AF
:100D9000821751F0E0910D02F0E0EC50FE4F958F7C
:100DA00080930D0201C08081FF91EF919F918F91FF
:100DB0002F910F900FBE0F901F9018951F920F92BA
:100DC0000FB60F9211242F933F934F935F936F931E
:100DD0007F938F939F93AF93BF93EF93FF938091F4
:100DE000B900887F803609F49CC068F5883209F420
:100DF0005BC090F4803109F454C038F4882309F4BE
:100E0000F6C0883009F44DC0F6C0883109F44CC0F2
:100E1000803209F45DC0EFC0803409F468C048F442
:100E2000803309F455C0883309F0E5C08093CD01C3
:100E3000D8C0803509F44FC0883509F45DC08834C6
:100E400009F0D9C0D6C0883909F4C7C0A8F48837DA
:100E500009F467C038F4883609F463C0803709F4B0
:100E600060C0C9C0883809F4B8C0803909F45FC0CF
:100E7000803809F0C0C05BC0803B09F486C038F4FC
:100E8000803A09F466C0883A09F47FC0B4C0803C57
:100E900009F4A7C0883C09F4A4C0883B09F48AC0BF
:100EA000AAC08091AA0110C09091CC018091CB0181
:100EB000981770F5E091CC0181E08E0F8093CC0102
:100EC000F0E0E555FE4F80818093BB0085EC86C045
:100ED0008093CD018EC0E091CC0181E08E0F809394
:100EE000CC018091BB00F0E0E555FE4F80839091EE
:100EF000CC018091CB016EC0E091CC0181E08E0FDE
:100F00008093CC018091BB00F0E0E555FE4F8083DB
:100F10008091CE0181116DC081E08093A90184EAA6
:100F200061C083E08093CF0110929E01CFCF80916A
:100F30009E01803208F051C0E0919E0181E08E0F49
:100F400080939E018091BB00F0E0E258FE4F8083C9
:100F5000BDCF85EC8093BC001092CF0180919E01A3
:100F6000803230F4E0919E01F0E0E258FE4F1082B2
:100F700060919E0170E0E0919F01F091A0018EE7E9
:100F800091E0099510929E0136C084E08093CF01D4
:100F900010927D0110927C01E091A101F091A201DB
:100FA000099580917C01811105C081E080937C01CD
:100FB00010925C01E0917D0181E08E0F80937D01B4
:100FC000F0E0E45AFE4F80818093BB0090917D0158
:100FD00080917C01981708F479CF85E88093BC0054
:100FE0000AC085EC8093BC001092CF0104C010921F
:100FF000CD010E94C201FF91EF91BF91AF919F91EE
:101000008F917F916F915F914F913F912F910F90B1
:101010000FBE0F901F9018953FB7F89480919E02D5
:1010200090919F02A091A002B091A10226B5A89B29
:1010300005C02F3F19F00196A11DB11D3FBFBA2F6A
:10104000A92F982F8827820F911DA11DB11DBC01CA
:10105000CD0142E0660F771F881F991F4A95D1F78F
:101060000895282F3091F301313208F04AC0809161
:10107000CF018111FCCF9091F20142E04093CF016A
:101080002093CE012FEF2093CD011092CC0130930D
:10109000CB01E2EDF1E0ABEAB1E020E0321721F064
:1010A00041914D932F5FFACF1092AA012091AA018E
:1010B000990F922B9093AA019091A901913061F41C
:1010C0001092A9019091AA019093BB009091BC004D
:1010D00093FDF8CF95EC01C095EE9093BC009091F4
:1010E000CF019230E1F39091CD019F3F79F0809153
:1010F000CD01803241F08091CD01803331F084E028
:1011000005C081E003C082E001C083E01092D101FC
:101110001092F3011092D0010895009769F0FC013C
:1011200001900020E9F73197AF01481B590BBC0132
:1011300084EF91E00C94B60080E090E008950C9468
:101140008D088F929F92AF92BF920F931F93CF9370
:10115000DF93CDB7DEB7A1970FB6F894DEBF0FBE11
:10116000CDBF19A2423008F44AE08E010F5D1F4F37
:10117000842E912CA12CB12CA50194010E94D70F93
:10118000E62FB901CA0101501109EA3014F4E05DFB
:1011900001C0E95CD801EC93232B242B252B61F7AC
:1011A000C8010E948D08A1960FB6F894DEBF0FBE4D
:1011B000CDBFDF91CF911F910F91BF90AF909F90C6
:1011C0008F900895CF92DF92EF92FF92CF93DF93AB
:1011D0006C01990FEE08FF08F7FE19C06DE284EF6D
:1011E00091E00E944901EC0166277727CB016C1939
:1011F0007D098E099F094AE00E94A1088C0F9D1F5E
:10120000DF91CF91FF90EF90DF90CF9008954AE06B
:10121000C701B601DF91CF91FF90EF90DF90CF90A3
:101220000C94A1080F931F93CF93DF938C01C0E020
:10123000D0E0F801EC0FFD1F6491662341F084EFCC
:1012400091E00E944901892B11F02196F2CFCE0145
:10125000DF91CF911F910F9108958F929F92AF923E
:10126000BF92CF92DF92EF92FF920F931F93CF9393
:10127000DF936B017C01142F9B01AC010E949D0F39
:10128000882319F08BE291E027C046015701E894CA
:10129000B7F82FEF3FEF4FE75FE7C501B4010E94BA
:1012A0009D0F81110DC02FEF3FEF4FE75FE7C501A5
:1012B000B4010E947C0D18161CF48FE291E00CC062
:1012C0002FEF3FEF4FE75FE4C701B6010E94DB0E4F
:1012D000181684F483E391E0DF91CF911F910F9171
:1012E000FF90EF90DF90CF90BF90AF909F908F9046
:1012F0000C948D082FEF3FEF4FE75FECC701B6016D
:101300000E947C0D87FDE6CF20E030E0A901C701F7
:10131000B6010E947C0D87FF0BC06DE284EF91E067
:101320000E944901EC01F7FAF094F7F8F09402C03A
:10133000C0E0D0E000E060E070E080E09FE31017E4
:1013400041F020E030E040E251E40E94810D0F5F67
:10135000F6CFA70196010E94100D6B017C010E943F
:10136000FA0D4B015C014AE00E94A108C80FD91F89
:101370001123B9F1C501B4010E94290E9B01AC01F2
:10138000C701B6010E940F0D6B017C016EE284EF74
:1013900091E00E944901C80FD91F20E030E040E2EF
:1013A00051E4C701B6010E94300F4B015C010E945D
:1013B000FA0D6B01E12CF12C4AE0C701B6010E9445
:1013C000A108C80FD91FC701B6010E94290E9B01B1
:1013D000AC01C501B4010E940F0D6B017C011150DD
:1013E000E1F6CE01DF91CF911F910F91FF90EF9029
:1013F000DF90CF90BF90AF909F908F900895CF9344
:10140000DF9342E00E942D09EC0187E391E00E9406
:101410008D088C0F9D1FDF91CF910895CF93DF939F
:101420000E948D08EC0187E391E00E948D088C0FEB
:101430009D1FDF91CF91089590E0FC01E250FF4F96
:101440002491FC01E651FF4F3491FC01EA52FF4F19
:10145000E491EE2309F43CC0222339F1233091F0CA
:1014600038F42130A9F0223001F584B58F7D12C007
:10147000273091F02830A1F02430B9F48091800019
:101480008F7D03C0809180008F77809380000DC096
:1014900084B58F7784BD09C08091B0008F7703C079
:1014A0008091B0008F7D8093B000F0E0EE0FFF1FC1
:1014B000E453FF4FA591B4919FB7F894611104C014
:1014C0008C913095382302C0EC913E2B3C939FBF0A
:1014D0000895CF93DF9390E0FC01E651FF4F2491F4
:1014E000FC01EA52FF4F8491882361F190E0880F5C
:1014F000991FFC01EE53FF4FC591D491FC01E453B9
:10150000FF4FA591B491611109C09FB7F8948881EC
:10151000209582238883EC912E230BC0623061F4E6
:101520009FB7F8948881322F309583238883EC917C
:101530002E2B2C939FBF06C08FB7F894E8812E2BDB
:1015400028838FBFDF91CF9108951F93CF93DF93AF
:10155000182FEB0161E00E94690A209711F460E006
:1015600004C0CF3FD10539F461E0812FDF91CF91E5
:101570001F910C941C0AE12FF0E0E250FF4FE49120
:10158000E330F9F048F4E130B9F0E230A1F584B588
:10159000806284BDC8BD34C0E730E9F0E83019F19D
:1015A000E43049F580918000806280938000D09380
:1015B0008B00C0938A0024C084B5806884BDC7BDF9
:1015C0001FC080918000806880938000D093890044
:1015D000C093880015C08091B00080688093B000EF
:1015E000C093B3000DC08091B00080628093B000C2
:1015F000C093B40005C0C038D1050CF0B5CFAFCF53
:10160000DF91CF911F9108958E3008F08E50209178
:10161000060190E4299F900111248770822B80930A
:101620007C0080917A00806480937A0080917A00B7
:1016300086FDFCCF809178002091790090E0922B7C
:1016400008958F929F92AF92BF92CF92DF92EF92C6
:10165000FF926B017C010E940C084B015C01C114DC
:10166000D104E104F104F1F00E940C08DC01CB018B
:1016700088199909AA09BB09883E9340A105B105BB
:1016800070F321E0C21AD108E108F10888EE880E53
:1016900083E0981EA11CB11CC114D104E104F10423
:1016A00019F7DDCFFF90EF90DF90CF90BF90AF9014
:1016B0009F908F9008951F920F920FB60F92112452
:1016C0002F933F938F939F93AF93BF938091A501E7
:1016D0009091A601A091A701B091A80130919D021F
:1016E00023E0230F2D3720F40196A11DB11D05C065
:1016F00026E8230F0296A11DB11D20939D02809321
:10170000A5019093A601A093A701B093A801809191
:101710009E0290919F02A091A002B091A102019619
:10172000A11DB11D80939E0290939F02A093A002E1
:10173000B093A102BF91AF919F918F913F912F9153
:101740000F900FBE0F901F901895CF93DF93CDB7DA
:10175000DEB760970FB6F894DEBF0FBECDBF7894AA
:1017600084B5826084BD84B5816084BD85B58260A6
:1017700085BD85B5816085BD80916E008160809357
:101780006E001092810080918100826080938100C0
:1017900080918100816080938100809180008160D0
:1017A000809380008091B10084608093B10080912B
:1017B000B00081608093B00080917A008460809353
:1017C0007A0080917A00826080937A0080917A001A
:1017D000816080937A0080917A00806880937A009B
:1017E0001092C100E0910402F091050282E0808332
:1017F000E0910002F09101021082E0910202F0916A
:10180000030280E1808310920C02E0910802F091C3
:10181000090286E08083E0910602F0910702808150
:1018200080618083E0910602F091070280818860E8
:101830008083E0910602F0910702808180688083B6
:10184000E0910602F091070280818F7D80831092E3
:10185000060160E080E10E94690A60E08FE00E947A
:10186000690A60E08EE00E94690A61E089E00E94F6
:10187000690A61E086E00E94690A61E084E00E94F2
:10188000690A609104017091050186E00E94A50A31
:10189000609102017091030189E00E94A50A1092F3
:1018A000A4011092A3011092D1011092F3011092A1
:1018B000CF0111E01093CE011092A90161E082E105
:1018C0000E941C0A61E083E10E941C0A8091B90019
:1018D0008E7F8093B9008091B9008D7F8093B9008D
:1018E00088E48093B80085E48093BC0084EB90E0AA
:1018F0009093A2018093A10185EB90E09093A001C9
:1019000080939F0141E050E0BE01605F7F4F85E71B
:1019100090E00E94820241E050E0BE01605F7F4F94
:101920008CE690E00E9482021F861093D00188E628
:101930008093F2011092D1011092F3016BE681E9DC
:1019400092E00E944D02019771F441E050E0BE0127
:10195000615F7F4F81E992E00E942002019719F4B4
:1019600081E00E943108CE0101960E9416030AE030
:1019700010E0CE0101960E94160364E670E080E05C
:1019800090E00E94210B0150110999F78FB7F8944C
:101990004091A5015091A6016091A7017091A80105
:1019A0008FBF0E943F030E94B801FBCFE4EFF1E03C
:1019B0001382128288EE93E0A0E0B0E084839583E6
:1019C000A683B7832BE031E03183208325EC30E020
:1019D0003587248724EC30E03787268720EC30E0F9
:1019E000318B208B21EC30E0338B228B22EC30E0EA
:1019F000358B248B26EC30E0378B268B118E128EA4
:101A0000138E148EE1E9F2E01382128284839583AF
:101A1000A683B7838DE191E0918380830895505828
:101A2000BB27AA270E94270D0C94A10E0E94930E9B
:101A300038F00E949A0E20F039F49F3F19F426F4F2
:101A40000C94900E0EF4E095E7FB0C948A0EE92FAF
:101A50000E94B20E58F3BA176207730784079507FE
:101A600020F079F4A6F50C94D40E0EF4E0950B2E2C
:101A7000BA2FA02D0B01B90190010C01CA01A001E0
:101A80001124FF27591B99F0593F50F4503E68F13B
:101A90001A16F040A22F232F342F4427585FF3CF7C
:101AA000469537952795A795F0405395C9F77EF44D
:101AB0001F16BA0B620B730B840BBAF09150A1F096
:101AC000FF0FBB1F661F771F881FC2F70EC0BA0F1C
:101AD000621F731F841F48F4879577956795B795A4
:101AE000F7959E3F08F0B0CF9395880F08F099279F
:101AF000EE0F9795879508950E94660E08F481E091
:101B000008950E94950D0C94A10E0E949A0E58F013
:101B10000E94930E40F029F45F3F29F00C948A0E46
:101B200051110C94D50E0C94900E0E94B20E68F3D5
:101B30009923B1F3552391F3951B550BBB27AA2786
:101B400062177307840738F09F5F5F4F220F331FC0
:101B5000441FAA1FA9F335D00E2E3AF0E0E832D088
:101B600091505040E695001CCAF72BD0FE2F29D08B
:101B7000660F771F881FBB1F261737074807AB075D
:101B8000B0E809F0BB0B802DBF01FF2793585F4FD2
:101B90003AF09E3F510578F00C948A0E0C94D50EC5
:101BA0005F3FE4F3983ED4F3869577956795B795B4
:101BB000F7959F5FC9F7880F911D9695879597F9BF
:101BC0000895E1E0660F771F881FBB1F6217730738
:101BD0008407BA0720F0621B730B840BBA0BEE1F4D
:101BE00088F7E09508950E94FA0D6894B1110C945D
:101BF000D50E08950E94BA0E88F09F5798F0B92F1D
:101C00009927B751B0F0E1F0660F771F881F991F31
:101C10001AF0BA95C9F714C0B13091F00E94D40EF1
:101C2000B1E008950C94D40E672F782F8827B85F01
:101C300039F0B93FCCF3869577956795B395D9F789
:101C40003EF490958095709561957F4F8F4F9F4F93
:101C50000895E89409C097FB3EF49095809570959F
:101C600061957F4F8F4F9F4F9923A9F0F92F96E9E8
:101C7000BB279395F695879577956795B795F1115D
:101C8000F8CFFAF4BB0F11F460FF1BC06F5F7F4FFA
:101C90008F4F9F4F16C0882311F096E911C077230C
:101CA00021F09EE8872F762F05C0662371F096E815
:101CB000862F70E060E02AF09A95660F771F881FE4
:101CC000DAF7880F9695879597F90895990F000888
:101CD000550FAA0BE0E8FEEF16161706E807F907FE
:101CE000C0F012161306E407F50798F0621B730B99
:101CF000840B950B39F40A2661F0232B242B252B1A
:101D000021F408950A2609F4A140A6958FEF811DBC
:101D1000811D089597F99F6780E870E060E008955D
:101D20009FEF80EC089500240A94161617061806F3
:101D30000906089500240A941216130614060506CF
:101D40000895092E0394000C11F4882352F0BB0F60
:101D500040F4BF2B11F460FF04C06F5F7F4F8F4FC3
:101D60009F4F089557FD9058440F551F59F05F3FFE
:101D700071F04795880F97FB991F61F09F3F79F0AD
:101D800087950895121613061406551FF2CF46952F
:101D9000F1DF08C0161617061806991FF1CF8695B1
:101DA0007105610508940895E894BB276627772795
:101DB000CB0197F908950E94660E08F48FEF0895FD
:101DC00016F00C94A20F0C94900E68940C948A0E4A
:101DD0000E94BA0EA8F39923C1F3AEF3DF93CF9319
:101DE0001F930F93FF92C92FDD2788232AF0219795
:101DF000660F771F881FDAF720E030E040E85FEBDE
:101E00009FE3883920F0803E38F021968F770E943A
:101E1000100DE8E6F0E004C00E94100DE5E9F0E0E6
:101E20000E94B00F8B01BE01EC01FB2E6F577109B0
:101E30007595771F880B990B0E942B0E28E132E7CE
:101E400041E35FE30E94430FAF2D9801AE01FF9085
:101E50000F911F91CF91DF910E94270D0C94A10E3D
:101E60000E94430F0C94A10E0E94930E38F00E9422
:101E70009A0E20F0952311F00C948A0E0C94900E7B
:101E800011240C94D50E0E94B20E70F3959FC1F3ED
:101E9000950F50E0551F629FF001729FBB27F00D18
:101EA000B11D639FAA27F00DB11DAA1F649F66276D
:101EB000B00DA11D661F829F2227B00DA11D621FBC
:101EC000739FB00DA11D621F839FA00D611D221F76
:101ED000749F3327A00D611D231F849F600D211D5A
:101EE000822F762F6A2F11249F5750409AF0F1F0DD
:101EF00088234AF0EE0FFF1FBB1F661F771F881F46
:101F000091505040A9F79E3F510580F00C948A0EE5
:101F10000C94D50E5F3FE4F3983ED4F38695779505
:101F20006795B795F795E7959F5FC1F7FE2B880FEB
:101F3000911D9695879597F908950E94660E880BD6
:101F4000990B08959F3F31F0915020F48795779534
:101F50006795B795880F911D9695879597F9089580
:101F6000DF93CF931F930F93FF92EF92DF927B014A
:101F70008C01689406C0DA2EEF010E94430FFE0127
:101F8000E894A5912591359145915591A6F3EF01DE
:101F90000E94270DFE019701A801DA9469F7DF90EE
:101FA000EF90FF900F911F91CF91DF910895A1E2E3
:101FB0001A2EAA1BBB1BFD010DC0AA1FBB1FEE1FC3
:101FC000FF1FA217B307E407F50720F0A21BB30B0E
:101FD000E40BF50B661F771F881F991F1A9469F78A
:101FE00060957095809590959B01AC01BD01CF01E6
:101FF0000895EE0FFF1F0590F491E02D099481E004
:0C20000090E0F8940C940410F894FFCFCA
:10200C0001019600DC0001000000004901B600E06F
:10201C000096011101EF000301000000004D0220A9
:10202C00027D02F40118020402F5016E616E006972
:0A203C006E66006F7666000D0A0064
:00000001FF
