:100000000C948A000C94B2000C94B2000C94B200D0
:100010000C94B2000C94B2000C94B2000C94B20098
:100020000C94B2000C94B2000C94B2000C94B20088
:100030000C94B2000C94B2000C94B2000C94B20078
:100040000C942A0A0C94B2000C94F8090C94D2096E
:100050000C94B2000C94B2000C94B2000C94B20058
:100060000C94740A0C94B20008000000BE9224495B
:10007000123EABAAAA2ABECDCCCC4C3E00000080DA
:10008000BEABAAAAAA3E00000000BF000000803F4D
:100090000000000000084178D3BB4387D1133D190D
:1000A0000E3CC3BD4282AD2B3E68EC8276BED98F3A
:1000B000E1A93E4C80EFFFBE01C4FF7F3F0000007E
:1000C000000000000000240027002A0000000000BB
:1000D000250028002B000404040404040404020284
:1000E00002020202030303030303010204081020B7
:1000F00040800102040810200102040810200000C2
:1001000000080002010000030407000000000000D6
:100110000000930B11241FBECFEFD8E0DEBFCDBF90
:1001200011E0A0E0B1E0E0EFFFE102C005900D9228
:10013000A234B107D9F722E0A2E4B1E001C01D92D8
:10014000AB3AB207E1F710E0CAE8D0E004C021976B
:10015000FE010E94F00FC938D107C9F70E94CC0BED
:100160000C94F60F0C940000982F2091010281E06E
:10017000213208F043C08091DD018111FCCF8091D4
:10018000000232E03093DD019093DC019FEF909309
:10019000DB011092DA012093D901A0EEB1E0E9EB86
:1001A000F1E090E0291331C01092B8019091B801AC
:1001B000880F892B8093B8018091B701813049F570
:1001C0001092B7018091B8018093BB008091BC0070
:1001D00083FDF8CF85EC8093BC008091DD018230F7
:1001E000E1F38091DB018F3FB1F08091DB01803240
:1001F000A1F08091DB01803391F084E01092DF0167
:10020000109201021092DE0108953D9131939F5F9B
:10021000C9CF85EEE0CF80E0F1CF82E0EFCF83E081
:10022000EDCF08950895AF92BF92CF92DF92EF92F3
:10023000FF920F931F93CF93DF936C017B018B0190
:10024000040F151FEB015E01AE18BF08C017D107E0
:1002500059F06991D601ED91FC910190F081E02D6A
:10026000C6010995892B79F7C501DF91CF911F91BF
:100270000F91FF90EF90DF90CF90BF90AF900895D7
:10028000FC01538D448D252F30E0842F90E0821B9C
:10029000930B541710F0CF96089501970895FC0121
:1002A000918D828D981761F0A28DAE0FBF2FB11D79
:1002B0005D968C91928D9F5F9F73928F90E00895D1
:1002C0008FEF9FEF0895FC01918D828D981731F08B
:1002D000828DE80FF11D858D90E008958FEF9FEFDF
:1002E0000895FC01918D228D892F90E0805C9F4FB5
:1002F000821B91098F739927089582E092E00E94F2
:10030000710121E0892B09F420E0822F089580E01B
:1003100090E0892B29F00E947D0181110C9400004E
:100320000895FC01A48DA80FB92FB11DA35ABF4F8A
:100330002C91848D90E001968F739927848FA689E4
:10034000B7892C93A089B1898C91837080648C9338
:10035000938D848D981306C00288F389E02D8081E7
:100360008F7D80830895EF92FF920F931F93CF9319
:10037000DF93EC0181E0888F9B8D8C8D98131AC0E0
:10038000E889F989808185FF15C09FB7F894EE89C7
:10039000FF896083E889F989808183708064808324
:1003A0009FBF81E090E0DF91CF911F910F91FF906F
:1003B000EF900895F62E0B8D10E00F5F1F4F0F7317
:1003C0001127E02E8C8D8E110CC00FB607FCFACFD2
:1003D000E889F989808185FFF5CFCE010E949101DE
:1003E000F1CFEB8DEC0FFD2FF11DE35AFF4FF082A3
:1003F0009FB7F8940B8FEA89FB8980818062CFCF09
:100400000F931F93CF93DF938C01D0E0C0E0F801EE
:10041000EC0FFD1F6491662341F082E092E00E94A0
:10042000B301892B11F02196F2CFCE01DF91CF914C
:100430001F910F910895CF93DF93EC01888D88234E
:10044000B9F0AA89BB89E889F9898C9185FD03C037
:10045000808186FD0DC00FB607FCF7CF8C9185FF1C
:10046000F2CF808185FFEDCFCE010E949101E9CFCF
:10047000DF91CF91089590E0FC01E250FF4F24916D
:10048000FC01E651FF4F3491FC01EA52FF4FE49129
:10049000EE23C9F0222339F0233001F1A8F42130F2
:1004A00019F1223029F1F0E0EE0FFF1FE453FF4F66
:1004B000A591B4918FB7F894EC91611126C0309555
:1004C0003E233C938FBF08952730A9F02830C9F010
:1004D000243049F7809180008F7D03C08091800097
:1004E0008F7780938000DFCF84B58F7784BDDBCF9B
:1004F00084B58F7DFBCF8091B0008F778093B00063
:10050000D2CF8091B0008F7DF9CF3E2BDACFCF9341
:10051000DF9390E0FC01E651FF4F24918A529F4FF8
:10052000FC0184918823D1F090E0880F991FFC0191
:10053000EE53FF4FA591B491FC01E453FF4FC591D9
:10054000D49161110EC09FB7F8948C91E22FE09581
:100550008E238C932881E223E8839FBFDF91CF9184
:1005600008958FB7F894EC91E22BEC938FBFF6CF00
:100570001F93CF93DF93182FEB0161E00E94870256
:10058000209739F460E0812FDF91CF911F910C9477
:100590003B02CF3FD10511F461E0F5CFE12FF0E050
:1005A000E250FF4FE491E33031F140F4E130B1F03B
:1005B000E230E1F0C038D1057CF7E4CFE73029F133
:1005C000E83059F1E430B1F7809180008062809387
:1005D0008000D0938B00C0938A0004C084B58068EB
:1005E00084BDC7BDDF91CF911F91089584B580620E
:1005F00084BDC8BDF7CF8091800080688093800063
:10060000D0938900C0938800EDCF8091B0008068BE
:100610008093B000C093B300E5CF8091B0008062BA
:100620008093B000C093B400DDCF2091010190E42D
:10063000299F900111248E50822B80937C00809101
:100640007A00806480937A0080917A0086FDFCCFE6
:10065000809178009091790008953FB7F894809147
:10066000A9019091AA01A091AB01B091AC0126B56E
:10067000A89B05C02F3F19F00196A11DB11D3FBFDA
:10068000BA2FA92F982F8827BC01CD01620F711DA9
:10069000811D911D42E0660F771F881F991F4A95A3
:1006A000D1F708958F929F92AF92BF92CF92DF922F
:1006B000EF92FF924B015C010E942D036B017C01C4
:1006C0000E942D036C197D098E099F09683E7340B5
:1006D00081059105A8F321E0821A9108A108B108CB
:1006E00088EEC80E83E0D81EE11CF11C8114910431
:1006F000A104B10429F7FF90EF90DF90CF90BF9055
:10070000AF909F908F90089585ED8093BC0080916D
:10071000BC0084FDFCCF1092DD010895209185017D
:10072000260F3327331F21323105ECF42091DD01F0
:10073000FC0190E080E0243069F082E00895A0910F
:1007400085012191AC014B595E4FA40FB52FB11D0E
:100750002C930196861798F380918501680F60931A
:10076000850180E0089581E008950895E091B20147
:100770008091B101E81730F4F0E0EB5BFE4F80812F
:1007800090E008958FEF9FEF08959091B2018091CE
:10079000B1012FEF3FEF981748F4E92FF0E0EB5B42
:1007A000FE4F208130E09F5F9093B201C901089510
:1007B0008091B1019091B201891B990B0895CF925C
:1007C000DF92EF92FF920F931F93CF93DF937C0101
:1007D000CB018A012091DE01222389F0EB016B011C
:1007E000C40ED51ECC15DD0569F06991D701ED91D8
:1007F000FC910190F081E02DC7010995F3CF642FA2
:100800000E948E03C801DF91CF911F910F91FF903D
:10081000EF90DF90CF900895CF93DF931F92CDB7E5
:10082000DEB769832091DE012223F9F020910102D5
:10083000203258F021E030E0FC013383228390E045
:1008400080E00F90DF91CF9108958091DF01E82F34
:10085000F0E0E052FE4F998190838F5F8093DF013B
:100860008093010281E090E0ECCF61E0CE0101963F
:100870000E948E03F7CF90E080E00895FC01019084
:100880000020E9F73197AF01481B590BBC0182E00A
:1008900092E00C9413018F929F92AF92BF920F93AC
:1008A0001F93CF93DF93CDB7DEB7A1970FB6F89420
:1008B000DEBF0FBECDBF19A2423008F44AE08E0160
:1008C0000F5D1F4F842E912CB12CA12CA5019401FA
:1008D0000E94CE0FE62FB901CA01EA30F4F4E05DC0
:1008E000D801EE938D01232B242B252B79F790E053
:1008F00080E0109719F0CD010E943E04A1960FB63A
:10090000F894DEBF0FBECDBFDF91CF911F910F9145
:10091000BF90AF909F908F900895E95CE1CFCF9307
:10092000DF930E943E04EC0183E391E00E943E04C9
:100930008C0F9D1FDF91CF910895CF92DF92EF92A0
:10094000FF92CF93DF936C01990FEE08FF08F7FE3B
:1009500019C06DE282E092E00E94B301EC016627CB
:100960007727CB016C197D098E099F094AE00E9407
:100970004B048C0F9D1FDF91CF91FF90EF90DF9084
:10098000CF9008954AE0C701B601DF91CF91FF9063
:10099000EF90DF90CF900C944B044F925F926F9248
:1009A0007F928F929F92AF92BF92CF92DF92EF92FF
:1009B000FF920F931F93CF936B017C01742EAC01B8
:1009C0009B010E94940F882399F086E391E0CF91D8
:1009D0001F910F91FF90EF90DF90CF90BF90AF905D
:1009E0009F908F907F906F905F904F900C943E04FB
:1009F00046015701E894B7F82FEF3FEF4FE75FE765
:100A0000C501B4010E94940F81110DC02FEF3FEF7B
:100A10004FE75FE7C501B4010E94730D18161CF47F
:100A20008AE391E0D4CF2FEF3FEF4FE75FE4C701B8
:100A3000B6010E94D20E18161CF48EE391E0C7CFC7
:100A40002FEF3FEF4FE75FECC701B6010E94730D38
:100A500087FDF3CF20E030E0A901C701B6010E9475
:100A6000730D10E000E087FF0AC06DE282E092E0C3
:100A70000E94B3018C01F7FAF094F7F8F094C0E00B
:100A800060E070E080E09FE37C1641F020E030E021
:100A900040E251E40E94780DCF5FF6CFA7019601A6
:100AA0000E94070D2B013C010E94F10D4B015C01DE
:100AB0004AE00E944B047C01E00EF11ECC23C1F100
:100AC000C501B4010E94200E9B01AC01C301B2011B
:100AD0000E94060D4B015C016EE282E092E00E94F2
:100AE000B301E80EF91EC15018F120E030E040E2F9
:100AF00051E4C501B4010E94270F2B013C010E9463
:100B0000F10D4B01B12CA12C4AE0C501B4010E94AA
:100B10004B04E80EF91EC501B4010E94200E9B0192
:100B2000AC01C301B2010E94060D4B015C01DBCF99
:100B3000C701CF911F910F91FF90EF90DF90CF9061
:100B4000BF90AF909F908F907F906F905F904F90ED
:100B50000895CF93DF9342E00E94CD04EC0183E33C
:100B600091E00E943E048C0F9D1FDF91CF9108956C
:100B7000AF92BF92CF92DF92EF92FF921F93CF93EB
:100B8000DF937B016A0191E09093DE0198E69093F8
:100B900000021092DF0110920102682F8FE992E0AB
:100BA0000E940C04C6EFDFEF019709F067C080E0F8
:100BB0000E94B400C82FD0E0209709F05FC0809158
:100BC000DD018111FCCF8C2D91E09093DD0190939C
:100BD000DC012FEF2093DB011092DA012C0D209322
:100BE000D9019093B8019091B801906D9093B8019C
:100BF0009091B7019130B9F51092B7019091B80179
:100C00009093BB009091BC0093FDF8CF95EC90932E
:100C1000BC009091DD019130E1F39091DA019817D9
:100C200010F48091DA01E9EBF1E0A5E4B1E010E025
:100C300018131BC01092B2011093B1015701F12C8F
:100C4000E12C8091B2011817A1F0CE14DF04B1F0AD
:100C50008FE992E00E94C5039FEFE91AF90AF501B6
:100C600081935F01EECF95EED2CF91919D931F5F5F
:100C7000DFCFCE14DF0411F0C5EFDFEFCE01DF913F
:100C8000CF911F91FF90EF90DF90CF90BF90AF90EA
:100C90000895CF93DF93EC014EE050E0BC018BE36D
:100CA00090E00E94B80528813981388329832A8100
:100CB0003B813A832B832C813D813C832D832E8184
:100CC0003F813E832F8328853985388729872A8568
:100CD0003B853A872B872C853D853C872D87DF9187
:100CE000CF9108952F923F924F925F926F927F9291
:100CF0008F929F92AF92BF92CF92DF92EF92FF922C
:100D00000F931F93CF93DF93CDB7DEB7CE56D2406C
:100D10000FB6F894DEBF0FBECDBFCE01875A9D4FF0
:100D20000E9449062FB7F8948091B3019091B401C5
:100D3000A091B501B091B6012FBFC959DD4F88838D
:100D4000C756D240C859DD4F9883C856D240C759BC
:100D5000DD4FA883C956D240C659DD4FB883CA5665
:100D6000D240CE010196C559DD4F99838883CB5679
:100D7000D2408E0107531F4FFE01EF56FE4FC3595D
:100D8000DD4FF983E883CD56D2407F0168011C0115
:100D900080E10E941503F101819391931F018FE07F
:100DA0000E941503F601819391936F018EE00E94DA
:100DB0001503F701819391937F010215130541F704
:100DC000C12CD12C76014601570126013701C559A6
:100DD000DD4FE881F981CB56D24061917191C559BF
:100DE000DD4FF983E883CB56D240072E000C880BE9
:100DF000990B0E94220E9B01AC01C301B2010E941B
:100E0000070D2B013C01F801619171918F01072EB3
:100E1000000C880B990B0E94220E9B01AC01C501AE
:100E2000B4010E94070D4B015C01C359DD4FE881FD
:100E3000F981CD56D24061917191C359DD4FF9834B
:100E4000E883CD56D240072E000C880B990B0E94E8
:100E5000220E9B01AC01C701B6010E94070D6B0178
:100E60007C01C559DD4F88819981CB56D240281627
:100E7000390609F0ACCF20E030E048EC52E4C30181
:100E8000B2010E94780D2B013C0120E030E048ECDB
:100E900052E4C501B4010E94780D4B015C0120E0D1
:100EA00030E048EC52E4C701B6010E94780D6B01B6
:100EB0007C01C301B2010E94EA0D362E272EC50126
:100EC000B4010E94EA0D062FC559DD4F7883CB5639
:100ED000D240C701B6010E94EA0D162FC359DD4F5B
:100EE0007883CD56D24020E030E84FEF53E4C30181
:100EF000B2010E94D20E18160CF09CC020E030EC1B
:100F00004FE754E4C301B2010E94780D2AE939E9A0
:100F100042E952E40E94270F2DEC3CEC42E152E4FE
:100F20000E94060D2B013C0120E030EC4FE754E419
:100F3000C501B4010E94780D26E636E646E650E487
:100F40000E94270F20E030EB43EB58E40E94270F6C
:100F500020E030ED44E857E40E94780D4B015C013D
:100F6000A701960160E070EC8FE794E40E94780D91
:100F700020E030E040E85FE30E94060D0E94DF0EB3
:100F80006B017C0180910201909103018F3F9105DB
:100F9000F9F48091430190914401019690934401AA
:100FA00080934301C297A4F070E060E089E00E9462
:100FB000B80261E070E080E090E00E9452036FEFC1
:100FC00070E089E00E94B80210924401109243013F
:100FD00080910001882309F450C020E030EE46E7FC
:100FE00055E4C701B6010E94780D25ED32ED4BE5C1
:100FF0005BE30E94070D9B01AC0160E070E080E8BC
:101000009FE30E94780D23E333E948E853E40E940C
:10101000060D6B017C0120E030E040E252EC0E94C2
:10102000730D87FF1CC084EB90E0909303018093C5
:10103000020123C0A301920160E070E480E094E427
:101040000E94060D20E030EC4FE754E40E94780D3A
:1010500020E030E040E752E40E94270F63CF20E019
:1010600030E040E751E4C701B6010E94730D87FFED
:101070001AC1109203011092020160910401709153
:10108000050186E00E94B80260910201709103019F
:1010900089E00E94B8026FEF82E092E00E94B30103
:1010A00044E050E0BE0169597D4F82E092E00E9429
:1010B0001301622D82E092E00E94B301632D82E071
:1010C00092E00E94B301C559DD4F6881CB56D240F2
:1010D00082E092E00E94B301602F82E092E00E94E1
:1010E000B301C359DD4F6881CD56D24082E092E012
:1010F0000E94B301612F82E092E00E94B301C65AC0
:10110000DD4F6881CA55D24082E092E00E94B3016F
:10111000C75ADD4F6881C955D24082E092E00E94F3
:10112000B301C45ADD4F6881CC55D24082E092E0D1
:101130000E94B301C55ADD4F6881CB55D24082E091
:1011400092E00E94B301C25ADD4F6881CE55D24071
:1011500082E092E00E94B301C35ADD4F6881CD5511
:10116000D24082E092E00E94B301CE59DD4F688107
:10117000C256D24082E092E00E94B301CF59DD4FC7
:101180006881C156D24082E092E00E94B301CC59FE
:10119000DD4F6881C456D24082E092E00E94B301E4
:1011A000CD59DD4F6881C356D24082E092E00E9463
:1011B000B301CA59DD4F6881C656D24082E092E041
:1011C0000E94B301CB59DD4F6881C556D24082E001
:1011D00092E00E94B3016091020182E092E00E94DD
:1011E000B3016091040182E092E00E94B30186E0C5
:1011F00091E00E943E0420E030E040E551E4C5016A
:10120000B4010E94730D87FF10C020E030E040E081
:1012100050E4C301B2010E94730D87FF06C068EE5F
:1012200073E080E090E00E94520382E092E00E942E
:1012300071010297F4F06AE070E080E090E00E94B3
:10124000520382E092E00E944F017C0182E092E032
:101250000E944F018C016AE070E080E090E00E9403
:10126000520393E0E916F10409F04BC081E080934A
:101270004201C259DD4F0FB6F894DEBF0FBECDBF9D
:10128000DF91CF911F910F91FF90EF90DF90CF9062
:10129000BF90AF909F908F907F906F905F904F9096
:1012A0003F902F90089520E030E040E252E4C701E3
:1012B000B6010E94730D87FF21C020E030E040E7B7
:1012C00051E4C701B6010E94060D20E030E048EC71
:1012D00051E40E94780D20E030E049E153E40E949F
:1012E000270F20E030E04CEC52E40E94070D0E94F2
:1012F000EA0D7093030160930201BFCE8FEF90E07F
:1013000094CEE1E0EE16F10471F40130110521F400
:1013100081E080930001ADCF10930301009302019F
:1013200010920001A6CFF0E1EF16F10429F410931A
:101330000501009304019DCF81E1E816F10409F055
:1013400098CF809142010F3F1105A9F4FF24F39437
:101350008F1589F061E084E00E943B0264E670E052
:1013600080E090E00E94520360E084E00E943B0233
:10137000F09242017ECF012B09F07BCF882309F444
:1013800078CF61E084E00E943B0264E670E080E098
:1013900090E00E94520360E084E00E943B021092C1
:1013A000420167CF1F920F920FB60F9211242F9315
:1013B0003F934F935F936F937F938F939F93AF93DD
:1013C000BF93EF93FF9382E092E00E949101FF911F
:1013D000EF91BF91AF919F918F917F916F915F91AD
:1013E0004F913F912F910F900FBE0F901F90189526
:1013F0001F920F920FB60F9211242F938F939F93EA
:10140000EF93FF93E0911202F09113028081E0913B
:101410001802F091190282FD1BC0908180911B027D
:101420008F5F8F7320911C02821741F0E0911B02A5
:10143000F0E0EE5FFD4F958F80931B02FF91EF91DF
:101440009F918F912F910F900FBE0F901F90189525
:101450008081F4CF1F920F920FB60F9211242F9319
:101460003F938F939F93AF93BF938091B3019091DC
:10147000B401A091B501B091B6013091A80123E06B
:10148000230F2D3758F50196A11DB11D2093A801FA
:101490008093B3019093B401A093B501B093B601CA
:1014A0008091A9019091AA01A091AB01B091AC01EA
:1014B0000196A11DB11D8093A9019093AA01A0934B
:1014C000AB01B093AC01BF91AF919F918F913F91D0
:1014D0002F910F900FBE0F901F90189526E8230FA5
:1014E0000296A11DB11DD2CF1F920F920FB60F927F
:1014F00011242F933F934F935F936F937F938F9319
:101500009F93AF93BF93EF93FF938091B900887F30
:10151000803609F44AC0F0F5883209F4A7C018F5FE
:10152000803109F49BC0B8F4882309F4F9C08830ED
:1015300009F494C0FF91EF91BF91AF919F918F916A
:101540007F916F915F914F913F912F910F900FBEBF
:101550000F901F901895883109F488C0803251F798
:101560008093DB0114C0803409F49DC040F48033C3
:10157000B9F38833F9F68093DB0185ECB0C0803590
:1015800009F485C0883509F496C0883499F60E941C
:101590008403D0CF883909F48CC038F5883729F016
:1015A00050F4883611F0803729F683E08093DD010E
:1015B0001092A70157C0883809F47BC0803919F010
:1015C000803809F0B7CF8091A701803208F071C050
:1015D000E091A70181E08E0F8093A7018091BB006D
:1015E000F0E0E957FE4F80833DC0803B39F0E0F4E6
:1015F000803A09F479C0883A09F09CCF84E080935E
:10160000DD011092860110928501E091AF01F09109
:10161000B00109958091850181110FC081E080930F
:1016200085011092650109C0803C09F4A6CF883C71
:1016300009F4A3CF883B09F07DCFE091860181E0DA
:101640008E0F80938601F0E0EB59FE4F80818093EE
:10165000BB00909186018091850129C08091B801DD
:101660008093BB0085EC8093BC0064CF9091DA013D
:101670008091D901981758F5E091DA0181E08E0F39
:101680008093DA01F0E0E754FE4F8081E9CFE091EA
:10169000DA0181E08E0F8093DA018091BB00F0E0E7
:1016A000E754FE4F80839091DA018091D901981719
:1016B000C8F285E8D8CFE091DA0181E08E0F8093FF
:1016C000DA018091BB00F0E0E754FE4F8083809107
:1016D000DC0181115CCF81E08093B70184EA8093C3
:1016E000BC001092DD0126CF85EC8093BC001092E7
:1016F000DD018091A701803230F4E091A701F0E094
:10170000E957FE4F10826091A70170E0E091AD01B2
:10171000F091AE0187E891E009951092A7010ACFF8
:101720001092DB0134CFE2E0F2E01382128288EE05
:1017300093E0A0E0B0E084839583A683B78323E1A0
:1017400031E03183208325EC30E03587248724EC99
:1017500030E03787268720EC30E0318B208B21EC7E
:1017600030E0338B228B22EC30E0358B248B26EC5F
:1017700030E0378B268B118E128E138E148EEFE98C
:10178000F2E01382128284839583A683B78385E275
:1017900091E0918380830895CF93DF93CDB7DEB737
:1017A00060970FB6F894DEBF0FBECDBF789484B5B6
:1017B000826084BD84B5816084BD85B5826085BD4D
:1017C00085B5816085BD80916E00816080936E00DB
:1017D00010928100809181008260809381008091CD
:1017E000810081608093810080918000816080937E
:1017F00080008091B10084608093B1008091B0003E
:1018000081608093B00080917A00846080937A0038
:1018100080917A00826080937A0080917A00816062
:1018200080937A0080917A00806880937A00109289
:10183000C100E0911202F091130282E08083E091F6
:101840000E02F0910F021082E0911002F09111024D
:1018500080E1808310921A02E0911602F091170243
:1018600086E08083E0911402F0911502808180610E
:101870008083E0911402F09115028081886080835A
:10188000E0911402F0911502808180688083E091DC
:101890001402F091150280818F7D808310920101E6
:1018A00060E080E10E94870260E08FE00E94870292
:1018B00060E08EE00E94870261E089E00E9487027A
:1018C00061E086E00E94870261E084E00E94870276
:1018D000609104017091050186E00E94B802609158
:1018E00002017091030189E00E94B8021092B201D6
:1018F0001092B1011092DF01109201021092DD01ED
:1019000011E01093DC011092B70161E082E10E94C6
:101910003B0261E083E10E943B028091B9008E7F2F
:101920008093B9008091B9008D7F8093B90088E4DD
:101930008093B80085E48093BC0081E191E09093AE
:10194000B0018093AF0182E191E09093AE0180936A
:10195000AD0141E050E0BE01605F7F4F85E790E060
:101960000E94B80541E050E0BE01605F7F4F8CE609
:1019700090E00E94B8051F861093DE0188E68093F0
:1019800000021092DF01109201026BE68FE992E0F3
:101990000E940C04019771F441E050E0BE01615FC8
:1019A0007F4F8FE992E00E94DF03019719F481E0F5
:1019B0000E94B400CE0101960E9449060AE010E0A0
:1019C000CE0101960E94490664E670E080E090E056
:1019D0000E9452030150110999F78FB7F894409172
:1019E000B3015091B4016091B5017091B6018FBF00
:1019F00000E010E00E94720601151105D9F30E9463
:101A00007D018823B9F30E940000F4CF5058BB2712
:101A1000AA270E941E0D0C94980E0E948A0E38F080
:101A20000E94910E20F039F49F3F19F426F40C9493
:101A3000870E0EF4E095E7FB0C94810EE92F0E94CF
:101A4000A90E58F3BA17620773078407950720F0A9
:101A500079F4A6F50C94CB0E0EF4E0950B2EBA2F6C
:101A6000A02D0B01B90190010C01CA01A0011124A4
:101A7000FF27591B99F0593F50F4503E68F11A1650
:101A8000F040A22F232F342F4427585FF3CF4695E1
:101A900037952795A795F0405395C9F77EF41F1603
:101AA000BA0B620B730B840BBAF09150A1F0FF0FCD
:101AB000BB1F661F771F881FC2F70EC0BA0F621FB9
:101AC000731F841F48F4879577956795B795F795A9
:101AD0009E3F08F0B0CF9395880F08F09927EE0F3E
:101AE0009795879508950E945D0E08F481E008950A
:101AF0000E948C0D0C94980E0E94910E58F00E943A
:101B00008A0E40F029F45F3F29F00C94810E5111A8
:101B10000C94CC0E0C94870E0E94A90E68F39923A6
:101B2000B1F3552391F3951B550BBB27AA276217D9
:101B30007307840738F09F5F5F4F220F331F441FE6
:101B4000AA1FA9F335D00E2E3AF0E0E832D091501A
:101B50005040E695001CCAF72BD0FE2F29D0660F07
:101B6000771F881FBB1F261737074807AB07B0E84A
:101B700009F0BB0B802DBF01FF2793585F4F3AF050
:101B80009E3F510578F00C94810E0C94CC0E5F3F73
:101B9000E4F3983ED4F3869577956795B795F795D6
:101BA0009F5FC9F7880F911D9695879597F90895BE
:101BB000E1E0660F771F881FBB1F6217730784075A
:101BC000BA0720F0621B730B840BBA0BEE1F88F769
:101BD000E09508950E94F10D6894B1110C94CC0E1B
:101BE00008950E94B10E88F09F5798F0B92F992759
:101BF000B751B0F0E1F0660F771F881F991F1AF0F8
:101C0000BA95C9F714C0B13091F00E94CB0EB1E083
:101C100008950C94CB0E672F782F8827B85F39F082
:101C2000B93FCCF3869577956795B395D9F73EF490
:101C300090958095709561957F4F8F4F9F4F089538
:101C4000E89409C097FB3EF4909580957095619556
:101C50007F4F8F4F9F4F9923A9F0F92F96E9BB270C
:101C60009395F695879577956795B795F111F8CF88
:101C7000FAF4BB0F11F460FF1BC06F5F7F4F8F4FF3
:101C80009F4F16C0882311F096E911C0772321F0E9
:101C90009EE8872F762F05C0662371F096E8862F81
:101CA00070E060E02AF09A95660F771F881FDAF7D8
:101CB000880F9695879597F90895990F0008550F05
:101CC000AA0BE0E8FEEF16161706E807F907C0F0C2
:101CD00012161306E407F50798F0621B730B840BCA
:101CE000950B39F40A2661F0232B242B252B21F4A4
:101CF00008950A2609F4A140A6958FEF811D811D44
:101D0000089597F99F6780E870E060E008959FEF7D
:101D100080EC089500240A94161617061806090682
:101D2000089500240A941216130614060506089551
:101D3000092E0394000C11F4882352F0BB0F40F4D9
:101D4000BF2B11F460FF04C06F5F7F4F8F4F9F4F19
:101D5000089557FD9058440F551F59F05F3F71F09B
:101D60004795880F97FB991F61F09F3F79F0879502
:101D70000895121613061406551FF2CF4695F1DF8B
:101D800008C0161617061806991FF1CF869571051B
:101D9000610508940895E894BB2766277727CB014F
:101DA00097F908950E945D0E08F48FEF089516F0DC
:101DB0000C94990F0C94870E68940C94810E0E94D9
:101DC000B10EA8F39923C1F3AEF3DF93CF931F9322
:101DD0000F93FF92C92FDD2788232AF02197660FE2
:101DE000771F881FDAF720E030E040E85FEB9FE3E1
:101DF000883920F0803E38F021968F770E94070DB9
:101E0000E8E6F0E004C00E94070DE5E9F0E00E947A
:101E1000A70F8B01BE01EC01FB2E6F577109759561
:101E2000771F880B990B0E94220E28E132E741E3CD
:101E30005FE30E943A0FAF2D9801AE01FF900F9122
:101E40001F91CF91DF910E941E0D0C94980E0E945D
:101E50003A0F0C94980E0E948A0E38F00E94910E50
:101E600020F0952311F00C94810E0C94870E112410
:101E70000C94CC0E0E94A90E70F3959FC1F3950FA0
:101E800050E0551F629FF001729FBB27F00DB11DFE
:101E9000639FAA27F00DB11DAA1F649F6627B00D8E
:101EA000A11D661F829F2227B00DA11D621F739F77
:101EB000B00DA11D621F839FA00D611D221F749F85
:101EC0003327A00D611D231F849F600D211D822FCC
:101ED000762F6A2F11249F5750409AF0F1F08823F3
:101EE0004AF0EE0FFF1FBB1F661F771F881F915020
:101EF0005040A9F79E3F510580F00C94810E0C9440
:101F0000CC0E5F3FE4F3983ED4F3869577956795C2
:101F1000B795F795E7959F5FC1F7FE2B880F911D49
:101F20009695879597F908950E945D0E880B990BF9
:101F300008959F3F31F0915020F4879577956795EC
:101F4000B795880F911D9695879597F90895DF931A
:101F5000CF931F930F93FF92EF92DF927B018C013F
:101F6000689406C0DA2EEF010E943A0FFE01E89451
:101F7000A5912591359145915591A6F3EF010E94C8
:101F80001E0DFE019701A801DA9469F7DF90EF902A
:101F9000FF900F911F91CF91DF910895A1E21A2E2A
:101FA000AA1BBB1BFD010DC0AA1FBB1FEE1FFF1FFD
:101FB000A217B307E407F50720F0A21BB30BE40B4D
:101FC000F50B661F771F881F991F1A9469F7609594
:101FD0007095809590959B01AC01BD01CF0108954E
:101FE000EE0FFF1F0590F491E02D0994F894FFCFB8
:101FF0000101960033003230313931303138000080
:10200000000000B301130140011B0271014F016385
:1020100001000000000C04DF033B04B503D803C536
:1020200003B6030D0A006E616E00696E66006F767E
:02203000660048
:00000001FF
